:100000000C942A000C9447000C9447000C94470071
:100010000C94F9100C949B0F0C9438110C94BA109A
:100020000C947B100C941E0F0C943C100C94640EDA
:100030000C9447000C9447000C9447000C94470024
:100040000C9447000C9447000C9447000C94470014
:100050000C94470011241FBECFE5D8E0DEBFCDBF12
:1000600010E0A0E6B0E0E4E1F3E602C005900D92F6
:10007000AC3CB107D9F711E0ACECB0E001C01D9287
:10008000A036B107E1F70E94CD2C0C9488310C9476
:100090000000EF92FF920F931F937B018C0120E0F1
:1000A00030E040E05FE40E94F50388238CF0C80153
:1000B000B70120E030E040E05FE40E94C1010E940F
:1000C00055049B01AC01205030404040504806C0D0
:1000D000C801B7010E9455049B01AC01B901CA01D6
:1000E0001F910F91FF90EF900895A0E0B0E0EBE733
:1000F000F0E00C945131DC012B01FA019C9192301B
:1001000008F439C1EB018881823008F433C194309E
:1001100069F4843009F02FC111969C91119789815F
:10012000981709F428C1A1EAB0E025C1843009F488
:1001300021C18230A9F4923009F01DC19A01AD01AC
:1001400088E0EA010990AE01E90109929E0181501F
:10015000C1F7E201898111969C918923818308C1AD
:10016000923009F407C112962D903C901397EB0141
:100170008A819B811496AD90BD90CD90DC901797AD
:10018000EC80FD800E811F819101281B390BB90184
:1001900037FF04C066277727621B730B6032710537
:1001A0000CF061C0121613066CF537014801062EDB
:1001B00004C096948794779467940A94D2F721E0C8
:1001C00030E040E050E004C0220F331F441F551FB1
:1001D0006A95D2F721503040404050402E213F21B7
:1001E00040235123211531054105510521F021E01E
:1001F00030E040E050E079018A01E628F72808293C
:1002000019293CC0232BD1F1260E371E350146019A
:10021000062E04C096948794779467940A94D2F734
:1002200021E030E040E050E004C0220F331F441FC3
:10023000551F6A95D2F721503040404050402A2146
:100240003B214C215D21211531054105510521F04E
:1002500021E030E040E050E059016A01A628B728CB
:10026000C828D9280BC0821593052CF01C01AA249C
:10027000BB24650103C0EE24FF24870111969C91E5
:10028000D20111968C91981709F445C0992339F041
:10029000A80197012A193B094C095D0906C0A6016E
:1002A00095012E193F09400B510B57FD08C01182D3
:1002B0003382228224833583468357831DC081E0A5
:1002C00081833382228288279927DC01821B930B4A
:1002D000A40BB50B84839583A683B7830DC0220F2F
:1002E000331F441F551F24833583468357838281E0
:1002F000938101979383828324813581468157813D
:10030000DA01C9010197A109B1098F5F9F4FAF4F72
:10031000BF4328F30BC0918333822282EA0CFB1C7B
:100320000C1D1D1DE482F5820683178383E0808304
:10033000248135814681578157FF1AC0C901AA27F8
:1003400097FDA095BA2F81709070A070B0705695EF
:10035000479537952795822B932BA42BB52B848318
:100360009583A683B7838281938101969383828349
:10037000DF0101C0D201CD01CDB7DEB7E2E10C94BF
:100380006D31A0E2B0E0E7ECF1E00C945D316983FF
:100390007A838B839C832D833E834F835887E9E048
:1003A000EE2EF12CEC0EFD1ECE010196B7010E943F
:1003B0007E058E010F5E1F4FCE010596B8010E948B
:1003C0007E058A8991E089278A8BC701B801AE0131
:1003D000475E5F4F0E9475000E94A904A096E6E068
:1003E0000C947931A0E2B0E0E8EFF1E00C945D31DB
:1003F00069837A838B839C832D833E834F835887C5
:10040000F9E0EF2EF12CEC0EFD1ECE010196B701A6
:100410000E947E058E010F5E1F4FCE010596B8012A
:100420000E947E05C701B801AE01475E5F4F0E9482
:1004300075000E94A904A096E6E00C947931A0E230
:10044000B0E0E5E2F2E00C94513169837A838B836A
:100450009C832D833E834F835887CE010196BE0136
:10046000675F7F4F0E947E05CE010596BE016F5EDD
:100470007F4F0E947E059985923088F0898982306D
:10048000C8F0943019F4823051F404C0843029F457
:10049000923081F481EA90E0C6C0923049F420E0C5
:1004A0009A858A89981321E02A87CE010996BBC0D4
:1004B000823049F420E09A858A89981321E02A8BBA
:1004C000CE014196B0C02D843E844F8458886D88FB
:1004D0007E888F88988CEE24FF248701AA24BB2471
:1004E000650140E050E060E070E0E0E0F0E0C10174
:1004F00081709070892BE9F0E60CF71C081D191D1E
:100500009A01AB012A0D3B1D4C1D5D1D80E090E062
:10051000A0E0B0E0E614F7040805190520F481E036
:1005200090E0A0E0B0E0BA01A901480F591F6A1F8E
:100530007B1FAA0CBB1CCC1CDD1C97FE08C081E0F5
:1005400090E0A0E0B0E0A82AB92ACA2ADB2A3196B6
:10055000E032F10549F0660C771C881C991C569412
:10056000479437942794C3CFFA85EA892B893C892D
:100570008B859C85280F391F2E5F3F4F17C0CA01FE
:1005800081709070892B61F016950795F794E79428
:1005900080E090E0A0E0B0E8E82AF92A0A2B1B2BC3
:1005A00076956795579547952F5F3F4F77FDE7CF36
:1005B0000CC0440F551F661F771F17FD4160EE0CDE
:1005C000FF1C001F111F21503040403090E05907A0
:1005D00090E0690790E4790760F32B8F3C8FDB0193
:1005E000CA018F779070A070B07080349105A1051A
:1005F000B10561F447FD0AC0E114F10401051105DC
:1006000029F0405C5F4F6F4F7F4F40781A8EFE1786
:1006100011F081E08A8F4D8F5E8F6F8F78A383E01A
:10062000898FCE0149960E94A904A096E2E10C941C
:100630006D31A8E1B0E0EFE1F3E00C94593169834A
:100640007A838B839C832D833E834F835887B9E0C5
:10065000EB2EF12CEC0EFD1ECE010196B7010E948F
:100660007E058E010F5E1F4FCE010596B8010E94D8
:100670007E052985223008F47EC03989323010F495
:10068000B8017CC08A859A8989278A87243011F02D
:10069000223031F4231709F06EC061EA70E06EC0B9
:1006A000343039F41D861E861F86188A1C861B86E8
:1006B00004C0323021F484E08987B7015FC02B8504
:1006C0003C858B899C89281B390B3C872B87ED84C3
:1006D000FE840F851889AD88BE88CF88D88CEA142F
:1006E000FB040C051D0540F4EE0CFF1C001F111F40
:1006F000215030403C872B8720E030E040E050E044
:1007000080E090E0A0E0B0E460E070E0EA14FB0478
:100710000C051D0540F0282B392B4A2B5B2BEA18C2
:10072000FB080C091D09B695A79597958795EE0CC2
:10073000FF1C001F111F6F5F7F4F6F31710531F775
:10074000DA01C9018F779070A070B0708034910584
:10075000A105B10561F427FD0AC0E114F10401050A
:10076000110529F0205C3F4F4F4F5F4F20782D87B8
:100770003E874F87588BBE01675F7F4FCB010E943A
:10078000A9046896EAE00C947531A8E1B0E0EBECBE
:10079000F3E00C945D3169837A838B839C832D8392
:1007A0003E834F83588789E0E82EF12CEC0EFD1E26
:1007B000CE010196B7010E947E058E010F5E1F4F8C
:1007C000CE010596B8010E947E058985823040F0F1
:1007D0008989823028F0C701B8010E94F60501C05E
:1007E0008FEF6896E6E00C947931A8E1B0E0EBEF8A
:1007F000F3E00C945D3169837A838B839C832D8332
:100800003E834F83588789E0E82EF12CEC0EFD1EC5
:10081000CE010196B7010E947E058E010F5E1F4F2B
:10082000CE010596B8010E947E058985823040F090
:100830008989823028F0C701B8010E94F60501C0FD
:100840008FEF6896E6E00C947931A8E1B0E0EBE236
:10085000F4E00C945D3169837A838B839C832D83D0
:100860003E834F83588789E0E82EF12CEC0EFD1E65
:10087000CE010196B7010E947E058E010F5E1F4FCB
:10088000CE010596B8010E947E058985823040F030
:100890008989823028F0C701B8010E94F60501C09D
:1008A00081E06896E6E00C947931ACE0B0E0EBE5ED
:1008B000F4E00C94613169837A838B839C83CE014D
:1008C0000196BE016B5F7F4F0E947E058D81823055
:1008D00061F1823050F1843021F48E81882351F10E
:1008E0002EC02F81388537FD20C06E812F31310514
:1008F0001CF06623F9F023C08EE190E0821B930B7D
:1009000029853A854B855C8504C056954795379572
:1009100027958A95D2F76623B1F05095409530958A
:1009200021953F4F4F4F5F4F0EC020E030E040E039
:1009300050E009C02FEF3FEF4FEF5FE704C020E02A
:1009400030E040E050E8B901CA012C96E2E00C9496
:100950007D31DF92EF92FF920F931F93FC01E480B1
:10096000F58006811781D1808081823048F480E053
:1009700090E0A0E1B0E0E82AF92A0A2B1B2BA5C0E1
:10098000843009F49FC0823021F4EE24FF248701D3
:1009900005C0E114F1040105110519F4E0E0F0E0EF
:1009A00096C0628173819FEF623879070CF05BC05B
:1009B00022E83FEF261B370B2A3131052CF020E0CF
:1009C00030E040E050E02AC0B801A701022E04C088
:1009D00076956795579547950A94D2F781E090E010
:1009E000A0E0B0E004C0880F991FAA1FBB1F2A9582
:1009F000D2F70197A109B1098E219F21A023B1232C
:100A00000097A105B10521F081E090E0A0E0B0E001
:100A10009A01AB01282B392B4A2B5B2BDA01C90138
:100A20008F779070A070B07080349105A105B105EA
:100A300039F427FF09C0205C3F4F4F4F5F4F04C080
:100A4000215C3F4F4F4F5F4FE0E0F0E02030A0E0EF
:100A50003A07A0E04A07A0E45A0710F0E1E0F0E00E
:100A600079018A0127C06038710564F5FB01E158FE
:100A7000FF4FD801C7018F779070A070B07080349D
:100A80009105A105B10539F4E7FE0DC080E490E0C1
:100A9000A0E0B0E004C08FE390E0A0E0B0E0E80E9A
:100AA000F91E0A1F1B1F17FF05C016950795F7941F
:100AB000E794319687E016950795F794E7948A9521
:100AC000D1F705C0EE24FF248701EFEFF0E06E2F91
:100AD000679566276795902F9F77D794DD24D794E5
:100AE0008E2F8695492F462B582F5D29B701CA01B5
:100AF0001F910F91FF90EF90DF900895FC01DB01B3
:100B0000408151812281622F6F7770E0221F22275E
:100B1000221F9381892F880F822B282F30E0991F65
:100B20009927991F11969C93119721153105A9F5C5
:100B3000411551056105710511F482E037C082E865
:100B40009FEF13969C938E9312979A01AB0167E0E7
:100B5000220F331F441F551F6A95D1F783E08C93F2
:100B60000DC0220F331F441F551F12968D919C916B
:100B70001397019713969C938E931297203080E0E1
:100B8000380780E0480780E4580758F314962D93FF
:100B90003D934D935C93179708952F3F310579F45A
:100BA000411551056105710519F484E08C93089590
:100BB00064FF03C081E08C9312C01C9210C02F57B9
:100BC000304013963C932E93129783E08C9387E0EA
:100BD000440F551F661F771F8A95D1F770641496CE
:100BE0004D935D936D937C93179708951F93DC014C
:100BF000FB019C91923008F447C08081823008F458
:100C000043C0943051F411961C91843099F5818140
:100C1000682F70E0611B71093FC0843021F0923071
:100C200031F48230B9F18181882389F12DC0119688
:100C30001C9111978230F1F081811817D9F4129626
:100C40002D913C911397828193818217930794F0A1
:100C500028173907BCF014968D919D910D90BC9189
:100C6000A02D2481358146815781281739074A07ED
:100C70005B0718F4112341F00AC082179307A407F9
:100C8000B50740F4112319F061E070E005C06FEF83
:100C90007FEF02C060E070E0CB011F910895DF9309
:100CA000CF93CDB7DEB7A6E5B0E0E6E5F0E0808112
:100CB0008E7F8C93E0E2F0E08AE08083CF91DF9139
:100CC0000895DF93CF93CDB7DEB7E6E5F0E084EA91
:100CD0008083E6E5F0E080818823DCF7E1E2F0E064
:100CE0008081887FCF91DF910895DF93CF93CDB737
:100CF000DEB7E6E5F0E084EA8083E6E5F0E08081B7
:100D00008823DCF7E1E2F0E08081887FCF91DF91FA
:100D10000895DF93CF9300D0CDB7DEB789836A8380
:100D2000E3E2F0E08981882F90E0880F991F982FE7
:100D30008A81892B8083E6E5F0E084E88083A6E55C
:100D4000B0E0E6E5F0E080818F7D8C93E6E5F0E0B1
:100D500080818823DCF7E1E2F0E08081887F0F90DA
:100D60000F90CF91DF910895DF93CF930F92CDB77E
:100D7000DEB78983E3E2F0E089818083E6E5F0E095
:100D800084E88083A6E5B0E0E6E5F0E080818F7D31
:100D90008C93E6E5F0E080818823DCF7E1E2F0E087
:100DA0008081887F0F90CF91DF910895DF93CF935B
:100DB00000D000D00F92CDB7DEB79A8389836B83C2
:100DC0008B81282F30E03D832C838C819D8100977F
:100DD00051F02C813D812130310581F4E6E5F0E0D0
:100DE00084EC80830BC0E6E5F0E084E88083A6E530
:100DF000B0E0E6E5F0E080818F7B8C93E6E5F0E003
:100E000080818823DCF7E3E2F0E08081E981FA81E8
:100E10008083E1E2F0E08081887F0F900F900F9057
:100E20000F900F90CF91DF910895DF93CF93CDB7BF
:100E3000DEB7E6E5F0E084E98083E1E2F0E080817E
:100E4000887FCF91DF910895DF93CF9300D0CDB706
:100E5000DEB789836A838981882309F097C08A81F4
:100E6000882321F5A3E5B0E0E3E5F0E08081877F0A
:100E70008C93A3E5B0E0E3E5F0E080818F7B8C9379
:100E8000A3E5B0E0E3E5F0E080818F7E8C93A3E5FD
:100E9000B0E0E3E5F0E080818F7D8C93A9E5B0E0E0
:100EA000E9E5F0E0808181608C9370C08A818230B6
:100EB00011F5A3E5B0E0E3E5F0E08081877F8C9356
:100EC000A3E5B0E0E3E5F0E0808180648C93A3E5E6
:100ED000B0E0E3E5F0E080818F7E8C93A3E5B0E0A5
:100EE000E3E5F0E0808180628C9381E063E041E0A3
:100EF0000E94A2124BC08A81833011F5A3E5B0E0B5
:100F0000E3E5F0E0808188608C93A3E5B0E0E3E561
:100F1000F0E0808180648C93A3E5B0E0E3E5F0E04D
:100F200080818F7E8C93A3E5B0E0E3E5F0E08081E3
:100F300080628C9381E063E041E00E94A21226C0AF
:100F40008A81813019F5A3E5B0E0E3E5F0E0808126
:100F500088608C93A3E5B0E0E3E5F0E080818F7BCF
:100F60008C93A3E5B0E0E3E5F0E080818F7E8C9385
:100F7000A3E5B0E0E3E5F0E080818F7D8C93A9E507
:100F8000B0E0E9E5F0E0808182608C938981813076
:100F900009F0FEC08A81882309F040C0AFE4B0E0C8
:100FA000EFE4F0E080818F778C93AFE4B0E0EFE482
:100FB000F0E080818F7B8C93AFE4B0E0EFE4F0E071
:100FC00080818F7D8C93AFE4B0E0EFE4F0E080812E
:100FD0008F7E8C93AFE4B0E0EFE4F0E080818D7F12
:100FE0008C93AFE4B0E0EFE4F0E080818E7F8C93EF
:100FF000AEE4B0E0EEE4F0E08081877F8C93AEE475
:10100000B0E0EEE4F0E080818F7E8C93A9E5B0E063
:10101000E9E5F0E0808184608C93BAC08A818330F6
:1010200009F04BC0AFE4B0E0EFE4F0E0808180680D
:101030008C93AFE4B0E0EFE4F0E080818F7B8C93A1
:10104000AFE4B0E0EFE4F0E0808180628C93AFE445
:10105000B0E0EFE4F0E080818F7E8C93AFE4B0E00D
:10106000EFE4F0E0808182608C93AFE4B0E0EFE4E5
:10107000F0E080818E7F8C93AEE4B0E0EEE4F0E0AF
:10108000808188608C93AEE4B0E0EEE4F0E0808193
:1010900080618C93AEE4B0E0EEE4F0E08081887F84
:1010A00082608C9383E064E041E00E94A21283E0BE
:1010B00065E041E00E94A2126BC08A81813009F094
:1010C00047C0AFE4B0E0EFE4F0E080818F778C932D
:1010D000AFE4B0E0EFE4F0E080818F7B8C93AFE48D
:1010E000B0E0EFE4F0E080818F7D8C93AFE4B0E07E
:1010F000EFE4F0E080818F7E8C93AFE4B0E0EFE42A
:10110000F0E080818D7F8C93AFE4B0E0EFE4F0E01D
:1011100080818E7F8C93AEE4B0E0EEE4F0E08081DD
:1011200088608C93AEE4B0E0EEE4F0E08081806112
:101130008C93A9E5B0E0E9E5F0E0808180618C93D3
:10114000A9E5B0E0E9E5F0E0808188608C9320C0FB
:101150008A818430E9F4EFE4F0E01082EEE4F0E01C
:1011600081E48083A9E5B0E0E9E5F0E08081806278
:101170008C93A8E5B0E0E8E5F0E0808180628C9394
:10118000AEE4B0E0EEE4F0E08081887F83608C9391
:101190008981823009F07BC08A818823B1F4A5E47B
:1011A000B0E0E5E4F0E08081877F8C93A5E4B0E0D7
:1011B000E5E4F0E080818F7B8C93A9E5B0E0E9E580
:1011C000F0E0808180648C9362C08A81823011F566
:1011D000A5E4B0E0E5E4F0E08081877F8C93A5E4AE
:1011E000B0E0E5E4F0E0808180648C93A5E4B0E0B9
:1011F000E5E4F0E080818F7E8C93A5E4B0E0E5E447
:10120000F0E0808180628C9383E067E041E00E949F
:10121000A2123DC08A81833011F5A5E4B0E0E5E477
:10122000F0E0808188608C93A5E4B0E0E5E4F0E034
:10123000808180648C93A5E4B0E0E5E4F0E08081F7
:101240008F7E8C93A5E4B0E0E5E4F0E080818062DD
:101250008C9383E067E041E00E94A21218C08A816B
:101260008130A9F4A5E4B0E0E5E4F0E08081886095
:101270008C93A5E4B0E0E5E4F0E080818F7B8C9373
:10128000A9E5B0E0E9E5F0E0808180688C930F90FB
:101290000F90CF91DF910895DF93CF93CDB7DEB755
:1012A000A3E5B0E0E3E5F0E08081877F8C93A3E5E0
:1012B000B0E0E3E5F0E080818F7B8C93A3E5B0E0C4
:1012C000E3E5F0E080818F7E8C93A3E5B0E0E3E579
:1012D000F0E080818F7D8C93A9E5B0E0E9E5F0E056
:1012E000808181608C93A9E5B0E0E9E5F0E0808140
:1012F00080628C93A8E5B0E0E8E5F0E08081806250
:101300008C93A5E4B0E0E5E4F0E08081877F8C93E6
:10131000A5E4B0E0E5E4F0E080818F7B8C93A9E563
:10132000B0E0E9E5F0E0808180648C93CF91DF91BB
:101330000895DF93CF9300D000D00F92CDB7DEB7E2
:1013400089837B836A838981282F30E03D832C83C6
:101350008C819D818130910571F02C813D812230FD
:10136000310581F08C819D81009781F4E2E5F0E008
:101370008A8180830BC0ECE4F0E08A819B819183B9
:10138000808304C0E4E4F0E08A8180830F900F90B2
:101390000F900F900F90CF91DF910895DF93CF932F
:1013A00000D000D00F92CDB7DEB789837B836A83EC
:1013B0008981282F30E03D832C838C819D81813071
:1013C000910571F02C813D8122303105B1F08C8185
:1013D0009D810097B1F4ECE5F0E08A81808311C033
:1013E000EAE4F0E08A819B8191838083E8E4F0E085
:1013F0008A819B819183808304C0E3E4F0E08A8149
:1014000080830F900F900F900F900F90CF91DF91EE
:101410000895DF93CF9300D0CDB7DEB79A83898349
:10142000E6E4F0E089819A81918380830F900F90A8
:10143000CF91DF910895DF93CF9300D00F92CDB776
:10144000DEB789838981282F30E03B832A838A8114
:101450009B818130910591F02A813B8122303105B9
:10146000B1F08A819B810097D1F4A3E5B0E0E3E578
:10147000F0E08081887F82608C9311C0AEE4B0E0A0
:10148000EEE4F0E08081887F83608C9308C0A5E45F
:10149000B0E0E5E4F0E08081887F82608C930F907B
:1014A0000F900F90CF91DF910895DF93CF9300D0ED
:1014B0000F92CDB7DEB789838981282F30E03B8337
:1014C0002A838A819B818130910589F02A813B8121
:1014D00022303105A1F08A819B810097B9F4A3E500
:1014E000B0E0E3E5F0E08081887F8C930FC0AEE44C
:1014F000B0E0EEE4F0E08081887F8C9307C0A5E443
:10150000B0E0E5E4F0E08081887F8C930F900F904D
:101510000F90CF91DF910895DF93CF93CDB7DEB7D2
:1015200027970FB6F894DEBF0FBECDBF89837B83AC
:101530006A835D834C838981282F30E03F832E832B
:101540006E817F816130710509F44CC08E819F816D
:101550008230910509F493C02E813F812115310518
:1015600009F0B7C080913E01282F30E08A819B812D
:10157000AC01440F551F440F551FC901880F991F17
:10158000FC01EE5FFE4F5183408380913E01882F26
:1015900090E0880F991FFC01EC5CFE4F8C819D81CF
:1015A000918380838091D6008F5F8093D600809155
:1015B0003E01882F90E02091D600FC01EF52FF4FB2
:1015C000208380E066E070E00E94990980913E01EE
:1015D000853011F410923E0180913E018F5F80931F
:1015E0003E0177C080911801E82FF0E08A819B814D
:1015F00022E330E0B9010E94ED30CB019C01CF0124
:10160000880F991FFC01E55EFE4F31832083809196
:101610001801882F90E0880F991FFC01E45FFE4FAE
:101620008C819D819183808380911801482F50E0A7
:1016300080911801882F90E0880F991FFC01E55ECA
:10164000FE4F2081318185E39CE0BC01269FC001D3
:10165000279F900D369F900D11249C01232F332737
:101660002695CA01880F991FFC01E55EFE4F318364
:101670002083809118018F5F809318012AC0809188
:101680003F01282F30E08A819B81AC01440F551F18
:10169000440F551FC901880F991FFC01E05CFE4FE4
:1016A0005183408380913F01882F90E0880F991FDC
:1016B000FC01E65BFE4F8C819D819183808382E0FB
:1016C00066E070E00E94990980913F018F5F8093EE
:1016D0003F0189810E941B0A27960FB6F894DEBF4E
:1016E0000FBECDBFCF91DF910895DF93CF93CDB7DC
:1016F000DEB72A970FB6F894DEBF0FBECDBF9A872C
:10170000898785E0FE013496DF01982F1D929A9516
:10171000E9F71B821A8228C08A81882F90E0880FFF
:10172000991FFC01EC5CFE4F2081318189859A85EF
:1017300028173907B1F48A81882F90E0880F991F04
:10174000FC01EC5CFE4F118210828A81882F90E0B0
:10175000FC01EF52FF4F10828091D60081508093A0
:10176000D6008A818F5F8A838A818530A8F21982A8
:1017700018C08981882F90E0FC01EF52FF4F8081D3
:10178000882361F08981282F30E0F901EF52FF4F63
:1017900080818150F901EF52FF4F808389818F5FF3
:1017A00089838981853028F32A960FB6F894DEBFA5
:1017B0000FBECDBFCF91DF910895DF93CF9300D0BF
:1017C0000F92CDB7DEB79B838A83198243C089818C
:1017D000882F90E0FC01EF52FF4F80818130B9F5F6
:1017E0008981882F90E0880F991FFC01EC5CFE4FE7
:1017F00080819181009759F18981882F90E0FC01C7
:10180000E35DFE4F8081813011F58981882F90E062
:10181000880F991FFC01EC5CFE4F208131818A8189
:101820009B812817390799F08981882F90E0880FCC
:10183000991FFC01EC5CFE4F0190F081E02D0995B1
:101840008981882F90E0FC01E35DFE4F1082898141
:101850008F5F89838981853008F4B9CF0F900F900D
:101860000F90CF91DF910895DF93CF93CDB7DEB77F
:1018700029970FB6F894DEBF0FBECDBF89837B8357
:101880006A835D834C833F832E838981282F30E0D8
:1018900039872887488559854130510549F1888520
:1018A00099858230910509F440C028853985211534
:1018B000310509F056C02A813B8188EE93E0AC01E6
:1018C000249FC001259F900D349F900D11242C81E1
:1018D0003D81B9010E94ED30CB0190931A018093B4
:1018E00019018E819F81909328018093270139C02F
:1018F0002A813B8188EE93E0AC01249FC001259FA3
:10190000900D349F900D11242C813D81B9010E94CE
:10191000ED30CB0190933301809332018E819F8112
:1019200090931701809316011CC02A813B8188EE99
:1019300093E0AC01249FC001259F900D349F900D32
:1019400011242C813D81B9010E94ED30CB0190938F
:101950002601809325018E819F8190932C01809395
:101960002B012C813D818981B9010E94CE09898199
:101970000E941B0A29960FB6F894DEBF0FBECDBF9A
:10198000CF91DF910895DF93CF93CDB7DEB7E6E433
:10199000F0E080819181CF91DF910895DF93CF9323
:1019A000CDB7DEB7E2E5F0E08081CF91DF91089519
:1019B000DF93CF9300D00F92CDB7DEB789838981B3
:1019C000282F30E03B832A838A819B81009731F066
:1019D0002A813B812130310549F00FC0AEE4B0E0EF
:1019E000EEE4F0E080818F7B8C9307C0AEE4B0E042
:1019F000EEE4F0E0808180648C930F900F900F9064
:101A0000CF91DF910895DF93CF93CDB7DEB72A97BB
:101A10000FB6F894DEBF0FBECDBF89836A8389817C
:101A2000282F30E03A87298789859A85813091056A
:101A300051F129853A852230310509F456C089854E
:101A40009A85009709F06FC08A81282F30E0388787
:101A50002F838F819885009731F02F813885213031
:101A6000310549F060C0A9E5B0E0E9E5F0E080812A
:101A700081608C9358C0A9E5B0E0E9E5F0E0808191
:101A800082608C9350C08A81282F30E03E832D8362
:101A90008D819E818130910589F02D813E8122309A
:101AA0003105D9F08D819E810097E9F5A9E5B0E077
:101AB000E9E5F0E0808184608C9335C0A9E5B0E071
:101AC000E9E5F0E0808180618C93A9E5B0E0E9E58B
:101AD000F0E0808188608C9326C0A9E5B0E0E9E55C
:101AE000F0E0808180628C931EC08A81282F30E0D4
:101AF0003C832B838B819C81009731F02B813C812F
:101B00002130310549F00FC0A9E5B0E0E9E5F0E08A
:101B1000808180648C9307C0A9E5B0E0E9E5F0E03E
:101B2000808180688C932A960FB6F894DEBF0FBE32
:101B3000CDBFCF91DF910895DF93CF93CDB7DEB7BF
:101B40002A970FB6F894DEBF0FBECDBF89836A8394
:101B50008981282F30E03A87298789859A858130C5
:101B6000910551F129853A852230310509F456C095
:101B700089859A85009709F06FC08A81282F30E007
:101B800038872F838F819885009731F02F81388592
:101B90002130310549F060C0A9E5B0E0E9E5F0E0A9
:101BA00080818E7F8C9358C0A9E5B0E0E9E5F0E034
:101BB00080818D7F8C9350C08A81282F30E03E83B6
:101BC0002D838D819E818130910589F02D813E810B
:101BD00022303105D9F08D819E810097E9F5A9E584
:101BE000B0E0E9E5F0E080818B7F8C9335C0A9E51A
:101BF000B0E0E9E5F0E080818F7E8C93A9E5B0E06C
:101C0000E9E5F0E08081877F8C9326C0A9E5B0E00C
:101C1000E9E5F0E080818F7D8C931EC08A81282FBA
:101C200030E03C832B838B819C81009731F02B81AA
:101C30003C812130310549F00FC0A9E5B0E0E9E56C
:101C4000F0E080818F7B8C9307C0A9E5B0E0E9E5E7
:101C5000F0E080818F778C932A960FB6F894DEBFE0
:101C60000FBECDBFCF91DF910895DF93CF9300D00A
:101C700000D0CDB7DEB79A8389837C836B83E6E49B
:101C8000F0E01182108281E062E00E94030D8091F9
:101C9000D0008823E1F31092D0008091CE00909183
:101CA000CF00E981FA81918380838091CC0090916B
:101CB000CD00EB81FC81918380830F900F900F907A
:101CC0000F90CF91DF9108951F920F920FB60F9250
:101CD0001124EF92FF920F931F932F933F934F93F3
:101CE0005F936F937F938F939F93AF93BF93EF9384
:101CF000FF93DF93CF930F92CDB7DEB780E066E01E
:101D000070E00E949909198252C0E090D700F090CB
:101D1000D8000091D9001091DA008981882F90E0D5
:101D2000880F991FFC01EE5FFE4F808191819C011D
:101D300040E050E0C801B7010E941431DC01CB0142
:101D40000097A105B10581F58981882F90E0880F62
:101D5000991FFC01EC5CFE4F80819181009721F17D
:101D60008981882F90E0FC01E35DFE4F808188230C
:101D7000D9F48981882F90E0FC01E35DFE4F81E07A
:101D800080838981882F90E0880F991FFC01EC5C8B
:101D9000FE4F0190F081E02D09958981882F90E018
:101DA000FC01E35DFE4F108289818F5F8983898109
:101DB000853008F4AACF8091D7009091D800A091E7
:101DC000D900B091DA00803223EF92072FEFA207FB
:101DD0002FEFB20741F41092D7001092D800109262
:101DE000D9001092DA008091D7009091D800A0918C
:101DF000D900B091DA000196A11DB11D8093D700E2
:101E00009093D800A093D900B093DA000F90CF91AF
:101E1000DF91FF91EF91BF91AF919F918F917F9152
:101E20006F915F914F913F912F911F910F91FF9073
:101E3000EF900F900FBE0F901F9018951F920F926A
:101E40000FB60F9211242F933F934F935F936F938D
:101E50007F938F939F93AF93BF93EF93FF93DF9302
:101E6000CF930F92CDB7DEB781E066E977EE0E949F
:101E7000990919822FC04091DB005091DC008981C3
:101E8000882F90E0880F991FFC01E55EFE4F2081AE
:101E90003181CA01B9010E94ED300097C1F48981F6
:101EA000882F90E0880F991FFC01E45FFE4F80812E
:101EB0009181009761F08981882F90E0880F991FA8
:101EC000FC01E45FFE4F0190F081E02D09958981CE
:101ED0008F5F89838981853070F280E066E070E0F1
:101EE0000E9499098091DB009091DC0021E0843F01
:101EF000920721F41092DC001092DB008091DB004D
:101F00009091DC0001969093DC008093DB000F90B1
:101F1000CF91DF91FF91EF91BF91AF919F918F9101
:101F20007F916F915F914F913F912F910F900FBED5
:101F30000F901F9018951F920F920FB60F921124B9
:101F4000EF92FF920F931F932F933F934F935F93C3
:101F50006F937F938F939F93AF93BF93EF93FF9371
:101F6000DF93CF930F92CDB7DEB782E066E070E0EB
:101F70000E94990919823AC0E090DD00F090DE00DD
:101F80000091DF001091E0008981882F90E0880F98
:101F9000991FFC01E05CFE4F808191819C0140E033
:101FA00050E0C801B7010E941431DC01CB01009759
:101FB000A105B105C1F48981882F90E0880F991F90
:101FC000FC01E65BFE4F80819181009761F0898181
:101FD000882F90E0880F991FFC01E65BFE4F01906F
:101FE000F081E02D099589818F5F89838981853012
:101FF00018F28091DD009091DE00A091DF00B09199
:10200000E000803223EF92072FEFA2072FEFB207F5
:1020100041F41092DD001092DE001092DF00109269
:10202000E0008091DD009091DE00A091DF00B09192
:10203000E0000196A11DB11D8093DD009093DE00AC
:10204000A093DF00B093E0000F90CF91DF91FF915C
:10205000EF91BF91AF919F918F917F916F915F9120
:102060004F913F912F911F910F91FF90EF900F9003
:102070000FBE0F901F9018951F920F920FB60F92E0
:1020800011242F933F934F935F936F937F938F937D
:102090009F93AF93BF93EF93FF93DF93CF93CDB70E
:1020A000DEB78091E1008F5F8093E1008091E100D5
:1020B000282F30E08091190190911A0128173907D3
:1020C00039F4E0912701F091280109951092E1007F
:1020D000CF91DF91FF91EF91BF91AF919F918F9140
:1020E0007F916F915F914F913F912F910F900FBE14
:1020F0000F901F9018951F920F920FB60F921124F8
:102100002F933F934F935F936F937F938F939F93FF
:10211000AF93BF93EF93FF93DF93CF93CDB7DEB72A
:102120008091E2008F5F8093E2008091E200282F8F
:1021300030E080913201909133012817390739F44A
:10214000E0912701F091280109951092E200CF91CA
:10215000DF91FF91EF91BF91AF919F918F917F910F
:102160006F915F914F913F912F910F900FBE0F9004
:102170001F9018951F920F920FB60F9211242F9354
:102180003F934F935F936F937F938F939F93AF93FF
:10219000BF93EF93FF93DF93CF93CDB7DEB78091DB
:1021A000E3008F5F8093E3008091E300282F30E00D
:1021B00080913201909133012817390739F4E09169
:1021C0002701F091280109951092E300CF91DF914A
:1021D000FF91EF91BF91AF919F918F917F916F91FF
:1021E0005F914F913F912F910F900FBE0F901F90D5
:1021F00018951F920F920FB60F9211242F933F93B1
:102200004F935F936F937F938F939F93AF93BF93FE
:10221000EF93FF93DF93CF93CDB7DEB78091E400C8
:102220008F5F8093E4008091E400282F30E080915C
:102230002501909126012817390739F4E0912701EB
:10224000F091280109951092E400CF91DF91FF9160
:10225000EF91BF91AF919F918F917F916F915F911E
:102260004F913F912F910F900FBE0F901F90189597
:102270001F920F920FB60F9211240F931F932F935B
:102280003F934F935F936F937F938F939F93AF93FE
:10229000BF93EF93FF93DF93CF9300D0CDB7DEB71B
:1022A0008091EB008F5F8093EB008091EB00282FF3
:1022B00030E03A83298349815A814230510511F136
:1022C00089819A818330910509F442C029813A813C
:1022D0002130310509F06AC08091EB00882F90E031
:1022E0008C01015010400E94C30C9C01C801880F52
:1022F000991FFC01EB51FF4F3183208381E00E9445
:10230000D80C54C08091EB00882F90E08C010150D4
:1023100010400E94C30C9C01C801880F991FFC014A
:10232000EB51FF4F3183208380E00E94D80C209135
:10233000E7003091E8008091E5009091E600A90166
:10234000481B590BCA019093CD008093CC002EC03E
:102350008091EB00882F90E08C01015010400E948A
:10236000C30C9C01C801880F991FFC01EB51FF4F62
:102370003183208381E00E94D80C81E062E00E94DA
:102380009C0D2091E9003091EA008091E700909146
:10239000E800A901481B590BCA019093CF00809314
:1023A000CE001092EB0081E08093D0000F900F9050
:1023B000CF91DF91FF91EF91BF91AF919F918F915D
:1023C0007F916F915F914F913F912F911F910F914D
:1023D0000F900FBE0F901F901895DF93CF93CDB73E
:1023E000DEB7AFE5B0E0EFE5F0E0808180688C9388
:1023F000CF91DF910895DF93CF93CDB7DEB7AFE5EF
:10240000B0E0EFE5F0E080818F778C93CF91DF91A2
:102410000895DF93CF93CDB7DEB7ABE5B0E0EBE542
:10242000F0E0808180648C93A5E5B0E0E5E5F0E024
:10243000808188608C93A5E5B0E0E5E5F0E08081DF
:1024400084608C93CF91DF910895DF93CF9300D078
:1024500000D0CDB7DEB789836A838981282F30E029
:102460003C832B838B819C818130910549F12B81A9
:102470003C81223031052CF48B819C81009761F0E6
:102480005AC02B813C812230310571F18B819C81B6
:1024900083309105E9F14FC0ABE3B0E0EBE3F0E04E
:1024A0008081482F8A81282F30E081E090E0022E41
:1024B00002C0880F991F0A94E2F784278C933BC0CF
:1024C000A8E3B0E0E8E3F0E08081482F8A81282F7C
:1024D00030E081E090E0022E02C0880F991F0A943C
:1024E000E2F784278C9327C0A5E3B0E0E5E3F0E0B2
:1024F0008081482F8A81282F30E081E090E0022EF1
:1025000002C0880F991F0A94E2F784278C9313C0A6
:10251000A2E3B0E0E2E3F0E08081482F8A81282F37
:1025200030E081E090E0022E02C0880F991F0A94EB
:10253000E2F784278C930F900F900F900F90CF911C
:10254000DF910895DF93CF93CDB7DEB727970FB60E
:10255000F894DEBF0FBECDBF89836A834B838B8126
:10256000813009F06FC08981282F30E03F832E83AE
:102570008E819F818130910549F12E813F812230EA
:1025800031052CF48E819F81009761F0D2C02E819D
:102590003F812230310571F18E819F818330910519
:1025A000E9F1C7C0AAE3B0E0EAE3F0E08081482F98
:1025B0008A81282F30E081E090E0022E02C0880F4F
:1025C000991F0A94E2F7842B8C93B3C0A7E3B0E081
:1025D000E7E3F0E08081482F8A81282F30E081E016
:1025E00090E0022E02C0880F991F0A94E2F7842B14
:1025F0008C939FC0A4E3B0E0E4E3F0E08081482F37
:102600008A81282F30E081E090E0022E02C0880FFE
:10261000991F0A94E2F7842B8C938BC0A1E3B0E05E
:10262000E1E3F0E08081482F8A81282F30E081E0CB
:1026300090E0022E02C0880F991F0A94E2F7842BC3
:102640008C9377C08B81882309F073C08981282FF0
:1026500030E03D832C838C819D818130910559F13F
:102660002C813D81223031052CF48C819D81009795
:1026700069F05FC02C813D812230310589F18C8168
:102680009D818330910509F440C053C0AAE3B0E0B6
:10269000EAE3F0E08081482F8A81282F30E081E052
:1026A00090E0022E02C0880F991F0A94E2F78095ED
:1026B00084238C933EC0A7E3B0E0E7E3F0E08081A1
:1026C000482F8A81282F30E081E090E0022E02C05E
:1026D000880F991F0A94E2F7809584238C9329C070
:1026E000A4E3B0E0E4E3F0E08081482F8A81282F62
:1026F00030E081E090E0022E02C0880F991F0A941A
:10270000E2F7809584238C9314C0A1E3B0E0E1E369
:10271000F0E08081482F8A81282F30E081E090E02E
:10272000022E02C0880F991F0A94E2F78095842335
:102730008C9327960FB6F894DEBF0FBECDBFCF9116
:10274000DF910895DF93CF93CDB7DEB727970FB60C
:10275000F894DEBF0FBECDBF89836A834B838B8124
:10276000813009F06FC08981282F30E03F832E83AC
:102770008E819F818130910549F12E813F812230E8
:1027800031052CF48E819F81009761F0D2C02E819B
:102790003F812230310571F18E819F818330910517
:1027A000E9F1C7C0ABE3B0E0EBE3F0E08081482F94
:1027B0008A81282F30E081E090E0022E02C0880F4D
:1027C000991F0A94E2F7842B8C93B3C0A8E3B0E07E
:1027D000E8E3F0E08081482F8A81282F30E081E013
:1027E00090E0022E02C0880F991F0A94E2F7842B12
:1027F0008C939FC0A5E3B0E0E5E3F0E08081482F33
:102800008A81282F30E081E090E0022E02C0880FFC
:10281000991F0A94E2F7842B8C938BC0A2E3B0E05B
:10282000E2E3F0E08081482F8A81282F30E081E0C8
:1028300090E0022E02C0880F991F0A94E2F7842BC1
:102840008C9377C08B81882309F073C08981282FEE
:1028500030E03D832C838C819D818130910559F13D
:102860002C813D81223031052CF48C819D81009793
:1028700069F05FC02C813D812230310589F18C8166
:102880009D818330910509F440C053C0ABE3B0E0B3
:10289000EBE3F0E08081482F8A81282F30E081E04F
:1028A00090E0022E02C0880F991F0A94E2F78095EB
:1028B00084238C933EC0A8E3B0E0E8E3F0E080819D
:1028C000482F8A81282F30E081E090E0022E02C05C
:1028D000880F991F0A94E2F7809584238C9329C06E
:1028E000A5E3B0E0E5E3F0E08081482F8A81282F5E
:1028F00030E081E090E0022E02C0880F991F0A9418
:10290000E2F7809584238C9314C0A2E3B0E0E2E365
:10291000F0E08081482F8A81282F30E081E090E02C
:10292000022E02C0880F991F0A94E2F78095842333
:102930008C9327960FB6F894DEBF0FBECDBFCF9114
:10294000DF910895DF93CF9300D000D00F92CDB7E1
:10295000DEB78A836B8319828A81282F30E03D831A
:102960002C834C815D814130510541F18C819D81E9
:102970008230910534F42C813D812115310561F0BF
:1029800052C04C815D814230510551F18C819D8155
:1029900083309105B9F147C0E9E3F0E08081282F49
:1029A00030E08B81882F90E0A90102C055954795B2
:1029B0008A95E2F7CA018170898335C0E6E3F0E0C9
:1029C0008081282F30E08B81882F90E0A90102C000
:1029D000559547958A95E2F7CA018170898323C08E
:1029E000E3E3F0E08081282F30E08B81882F90E0B6
:1029F000A90102C0559547958A95E2F7CA018170F1
:102A0000898311C0E0E3F0E08081282F30E08B81E2
:102A1000882F90E0A90102C0559547958A95E2F765
:102A2000CA018170898389810F900F900F900F9058
:102A30000F90CF91DF910895DF93CF9300D000D016
:102A4000CDB7DEB789836A838981282F30E03C8344
:102A50002B838B819C8181309105D1F02B813C812E
:102A6000223031052CF48B819C81009761F01EC0CF
:102A70002B813C812230310581F08B819C81833018
:102A8000910581F013C0EAE3F0E08A8180830EC0F3
:102A9000E7E3F0E08A81808309C0E4E3F0E08A8123
:102AA000808304C0E1E3F0E08A8180830F900F907F
:102AB0000F900F90CF91DF910895DF93CF9300D0C7
:102AC00000D0CDB7DEB789836A838981282F30E0B3
:102AD0003C832B838B819C8181309105D1F02B81AC
:102AE0003C81223031052CF48B819C81009761F070
:102AF0001EC02B813C812230310581F08B819C816D
:102B00008330910581F013C0EBE3F0E08A8180838C
:102B10000EC0E8E3F0E08A81808309C0E5E3F0E0DD
:102B20008A81808304C0E2E3F0E08A8180830F9091
:102B30000F900F900F90CF91DF910895DF93CF9377
:102B400000D000D0CDB7DEB78A8319828A81282FC2
:102B500030E03C832B838B819C8181309105D1F0C7
:102B60002B813C81223031052CF48B819C81009794
:102B700061F01EC02B813C812230310581F08B81B8
:102B80009C818330910581F013C0E9E3F0E08081FE
:102B900089830EC0E6E3F0E08081898309C0E3E326
:102BA000F0E08081898304C0E0E3F0E080818983E4
:102BB00089810F900F900F900F90CF91DF91089522
:102BC000DF93CF93CDB7DEB780E063E041E00E94B2
:102BD000A21280E064E041E00E94A21280E065E081
:102BE00041E00E94A21280E066E041E00E94A21251
:102BF00080E067E041E00E94A21282E063E041E0F1
:102C00000E94A21282E065E041E00E94A21282E0EE
:102C100066E041E00E94A21282E067E041E00E948B
:102C2000A21280E063E040E00E94A21380E064E032
:102C300040E00E94A21280E065E040E00E94A21203
:102C400080E066E040E00E94A21280E067E040E0A1
:102C50000E94A21282E063E040E00E94A21282E0A1
:102C600065E040E00E94A21282E066E040E00E943F
:102C7000A21282E067E040E00E94A212CF91DF91B1
:102C80000895DF93CF930F92CDB7DEB78983898103
:102C9000863031F480E063E041E00E94A21350C02E
:102CA0008981882331F480E064E041E00E94A2132E
:102CB00047C08981813031F480E065E041E00E94C5
:102CC000A2133EC08981823031F480E066E041E0A9
:102CD0000E94A21335C08981833031F480E067E01F
:102CE00041E00E94A2132CC08981843031F482E03B
:102CF00063E041E00E94A21323C08981853031F452
:102D000082E064E041E00E94A2131AC0898187300A
:102D100031F482E065E041E00E94A21311C0898194
:102D2000883031F482E066E041E00E94A21308C0DE
:102D30008981893029F482E067E041E00E94A21392
:102D40000F90CF91DF910895DF93CF930F92CDB77E
:102D5000DEB789838981882331F480E063E040E035
:102D60000E94A21350C08981813031F480E064E078
:102D700040E00E94A21347C08981823031F480E094
:102D800065E040E00E94A2133EC08981833031F4A7
:102D900080E066E040E00E94A21335C08981843063
:102DA00031F480E067E040E00E94A2132CC08981EA
:102DB000853031F482E063E040E00E94A21323C03A
:102DC0008981863031F482E064E040E00E94A21301
:102DD0001AC08981873031F482E065E040E00E94CA
:102DE000A21311C08981883031F482E066E040E0AE
:102DF0000E94A21308C08981893029F482E067E02B
:102E000040E00E94A2130F90CF91DF910895DF93CD
:102E1000CF93CDB7DEB7809154019091550160E01A
:102E200041E00E94A212809154019091550161E00D
:102E300041E00E94A212809154019091550160E0FE
:102E400040E00E94A213809154019091550161E0ED
:102E500040E00E94A213CF91DF910895DF93CF93BA
:102E6000CDB7DEB78091EC00813059F480915401E8
:102E70009091550161E040E00E94A2131092EC0095
:102E80000DC0809154019091550161E041E00E9494
:102E9000A2138091EC008F5F8093EC000E94991840
:102EA000CF91DF910895DF93CF93CDB7DEB78091B7
:102EB00054019091550160E040E00E94A213CF912F
:102EC000DF910895DF93CF93CDB7DEB780915401A2
:102ED0009091550160E041E00E94A213CF91DF91F3
:102EE0000895DF93CF9300D0CDB7DEB79A8389835F
:102EF00080915401909155018F739070909355017A
:102F000080935401809154019091550166E041E015
:102F10000E94A21389819A81FC01EF53FF4F8081A7
:102F2000282F30E08091540190915501822B932BF2
:102F300090935501809354018091540190915501D3
:102F400024E630E0B9010E94ED3090935501809362
:102F5000540180915401909155018F73907090931A
:102F6000550180935401809154019091550167E07F
:102F700041E00E94A21389819A81FC01EF53FF4F27
:102F80008081282F30E08091540190915501822B4F
:102F9000932B90935501809354018091540190910B
:102FA00055012AE030E0B9010E94ED3090935501BF
:102FB0008093540180915401909155018F739070CA
:102FC0009093550180935401809154019091550143
:102FD00068E041E00E94A21389819A81FC01EF53CD
:102FE000FF4F8081282F30E080915401909155014E
:102FF000822B932B90935501809354010E94991832
:103000000F900F90CF91DF910895DF93CF93CDB7BD
:10301000DEB70E944C0980E29EE40E94090A83E028
:1030200065E041E00E94A2120E94ED11CF91DF9174
:103030000895DF93CF9300D0CDB7DEB78A8319828E
:1030400022C08A81282F30E0C901002496958795F7
:103050000794969587950794982F802D820F931F3C
:1030600026E030E0B9010E940131CB0186579D4F27
:103070009C0181E0B9010E94CE0981E00E941B0AF7
:1030800089818F5F898389818F30D8F20F900F906B
:10309000CF91DF910895DF93CF93CDB7DEB782E074
:1030A00064E041E00E94A213CF91DF910895DF9385
:1030B000CF93CDB7DEB782E064E040E00E94A21378
:1030C000CF91DF910895DF93CF93CDB7DEB782E044
:1030D00064E041E00E94A21282E064E040E00E94CD
:1030E000A213CF91DF910895DF93CF93CDB7DEB7D1
:1030F00081E062E041E00E94A21280E060E041E0F5
:103100000E94A21281E061E041E00E94A21281E0EF
:1031100062E040E00E94A21380E060E040E00E9494
:10312000A21381E061E040E00E94A213CF91DF9101
:103130000895DF93CF9300D00F92CDB7DEB7809183
:103140005401909155019B838A8381E062E040E0C5
:103150000E94A21319821BC08A81982F917080E06F
:1031600060E0492F0E94A2138A819B8196958795E2
:103170009B838A8381E061E041E00E94A21381E0A9
:1031800061E040E00E94A21389818F5F8983898179
:10319000803110F381E062E041E00E94A2130F90C1
:1031A0000F900F90CF91DF910895DF93CF93CDB71C
:1031B000DEB783E060E041E00E94A21283E067E0B6
:1031C00040E00E94A21283E060E040E00E94A2136F
:1031D000CF91DF910895DF93CF93CDB7DEB7ED9711
:1031E0000FB6F894DEBF0FBECDBF83E067E00E944C
:1031F000A2148823D1F319AE16C183E060E041E048
:103200000E94A21380E090E0A0E8BFE38DAB9EABEC
:10321000AFABB8AF6DA97EA98FA998AD20E030E023
:103220004AEF54E40E941F02DC01CB0189AB9AAB48
:10323000ABABBCAB69A97AA98BA99CA920E030E013
:1032400040E85FE30E94250488232CF481E090E0AD
:1032500098AB8FA73FC069A97AA98BA99CA920E048
:103260003FEF4FE757E40E94C50318164CF56DA9D0
:103270007EA98FA998AD20E030E040E251E40E94A1
:103280001F02DC01CB01BC01CD010E944900DC0121
:10329000CB0198AB8FA70FC088EC90E09EA78DA7BD
:1032A0008DA59EA50197F1F79EA78DA78FA598A93B
:1032B000019798AB8FA78FA598A9009769F714C0BD
:1032C00069A97AA98BA99CA90E944900DC01CB01BC
:1032D00098AB8FA78FA598A99CA78BA78BA59CA51A
:1032E0000197F1F79CA78BA783E067E00E94A214E7
:1032F000482F50E089AD282F30E087E190E0821B15
:10330000930B9A0102C0220F331F8A95E2F7C9017D
:103310009C01442737FD4095542F8AAD9BADACAD41
:10332000BDAD822B932BA42BB52B8AAF9BAFACAF3B
:10333000BDAF83E060E040E00E94A21380E090E037
:10334000A0E8BFE38FA398A7A9A7BAA76FA178A504
:1033500089A59AA520E030E04AEF54E40E941F02BC
:10336000DC01CB018BA39CA3ADA3BEA36BA17CA16D
:103370008DA19EA120E030E040E85FE30E9425049B
:1033800088232CF481E090E09AA389A33FC06BA12D
:103390007CA18DA19EA120E03FEF4FE757E40E9462
:1033A000C50318164CF56FA178A589A59AA520E04C
:1033B00030E040E251E40E941F02DC01CB01BC017D
:1033C000CD010E944900DC01CB019AA389A30FC063
:1033D00088EC90E098A38F8F8F8D98A10197F1F7DB
:1033E00098A38F8F89A19AA101979AA389A389A1F4
:1033F0009AA1009769F714C06BA17CA18DA19EA131
:103400000E944900DC01CB019AA389A389A19AA15A
:103410009E8F8D8F8D8D9E8D0197F1F79E8F8D8F55
:1034200089AD8F5F89AF89AD883108F4E6CE83E03E
:1034300060E041E00E94A21380E090E0A0E8BFE3DA
:10344000898F9A8FAB8FBC8F698D7A8D8B8D9C8D78
:1034500020E030E04AEF54E40E941F02DC01CB017F
:103460008D8B9E8BAF8BB88F6D897E898F89988D60
:1034700020E030E040E85FE30E94250488232CF43C
:1034800081E090E09C8B8B8B3FC06D897E898F891A
:10349000988D20E03FEF4FE757E40E94C5031816D0
:1034A0004CF5698D7A8D8B8D9C8D20E030E040E26B
:1034B00051E40E941F02DC01CB01BC01CD010E943E
:1034C0004900DC01CB019C8B8B8B0FC088EC90E01A
:1034D0009A8B898B89899A890197F1F79A8B898BC5
:1034E0008B899C8901979C8B8B8B8B899C890097FE
:1034F00069F714C06D897E898F89988D0E94490073
:10350000DC01CB019C8B8B8B8B899C89988B8F8763
:103510008F8598890197F1F7988B8F8783E060E01A
:1035200040E00E94A21380E090E0A0E8BFE38B8718
:103530009C87AD87BE876B857C858D859E8520E0C9
:1035400030E04AEF54E40E941F02DC01CB018F837C
:103550009887A987BA876F81788589859A8520E0C1
:1035600030E040E85FE30E94250488232CF481E0EA
:1035700090E09E838D833FC06F81788589859A8591
:1035800020E03FEF4FE757E40E94C50318164CF5C3
:103590006B857C858D859E8520E030E040E251E49E
:1035A0000E941F02DC01CB01BC01CD010E94490039
:1035B000DC01CB019E838D830FC088EC90E09C835F
:1035C0008B838B819C810197F1F79C838B838D8109
:1035D0009E8101979E838D838D819E81009769F7DF
:1035E00014C06F81788589859A850E944900DC0125
:1035F000CB019E838D838D819E819A83898389816E
:103600009A810197F1F79A8389838AAD9BADACAD1E
:10361000BDAD80709070A078B0700097A105B10525
:1036200049F08AAD9BADACADBDADBF6F8AAF9BAF6E
:10363000ACAFBDAF8AADED960FB6F894DEBF0FBE4E
:10364000CDBFCF91DF910895DF93CF93CDB7DEB794
:103650002E970FB6F894DEBF0FBECDBF81E090E08D
:103660000E94B51C80E090E0A0E0B0E48B879C87CE
:10367000AD87BE876B857C858D859E8520E030E09B
:103680004AEF54E40E941F02DC01CB018F8398872C
:10369000A987BA876F81788589859A8520E030E08F
:1036A00040E85FE30E94250488232CF481E090E049
:1036B0009E838D833FC06F81788589859A8520E0C0
:1036C0003FEF4FE757E40E94C50318164CF56B8592
:1036D0007C858D859E8520E030E040E251E40E94AB
:1036E0001F02DC01CB01BC01CD010E944900DC01BD
:1036F000CB019E838D830FC088EC90E09C838B83ED
:103700008B819C810197F1F79C838B838D819E81B6
:1037100001979E838D838D819E81009769F714C0E8
:103720006F81788589859A850E944900DC01CB01EB
:103730009E838D838D819E819A83898389819A81DD
:103740000197F1F79A8389832E960FB6F894DEBF1E
:103750000FBECDBFCF91DF910895DF93CF93CDB74B
:10376000DEB76D970FB6F894DEBF0FBECDBF8D8F5D
:103770000E94610687E260E00E9489068D8D8C6060
:103780000E94B40680E090E0A0E8BFE3898F9A8FA2
:10379000AB8FBC8F698D7A8D8B8D9C8D20E030E056
:1037A0004AEF54E40E941F02DC01CB018D8B9E8BFB
:1037B000AF8BB88F6D897E898F89988D20E030E03E
:1037C00040E85FE30E94250488232CF481E090E028
:1037D0009C8B8B8B3FC06D897E898F89988D20E073
:1037E0003FEF4FE757E40E94C50318164CF5698D6B
:1037F0007A8D8B8D9C8D20E030E040E251E40E9478
:103800001F02DC01CB01BC01CD010E944900DC019B
:10381000CB019C8B8B8B0FC088EC90E09A8B898BB3
:1038200089899A890197F1F79A8B898B8B899C8971
:1038300001979C8B8B8B8B899C89009769F714C0AF
:103840006D897E898F89988D0E944900DC01CB01AA
:103850009C8B8B8B8B899C89988B8F878F85988984
:103860000197F1F7988B8F878D8D88600E94B40641
:1038700080E090E0A0E8BFE38B879C87AD87BE87A0
:103880006B857C858D859E8520E030E04AEF54E491
:103890000E941F02DC01CB018F839887A987BA871A
:1038A0006F81788589859A8520E030E040E85FE384
:1038B0000E94250488232CF481E090E09E838D8370
:1038C0003FC06F81788589859A8520E03FEF4FE77B
:1038D00057E40E94C50318164CF56B857C858D85D1
:1038E0009E8520E030E040E251E40E941F02DC01AE
:1038F000CB01BC01CD010E944900DC01CB019E83BC
:103900008D830FC088EC90E09C838B838B819C819E
:103910000197F1F79C838B838D819E8101979E8314
:103920008D838D819E81009769F714C06F817885A2
:1039300089859A850E944900DC01CB019E838D8395
:103940008D819E819A83898389819A810197F1F77C
:103950009A8389830E9415076D960FB6F894DEBF8F
:103960000FBECDBFCF91DF910895DF93CF93CDB739
:10397000DEB7EA970FB6F894DEBF0FBECDBF8AAFB1
:103980008AAD807F89AF0E94610687E260E00E9475
:10399000890689AD8C600E94B40680E090E0A0E8C2
:1039A000BFE38DAB9EABAFABB8AF6DA97EA98FA9BE
:1039B00098AD20E030E04AEF54E40E941F02DC01A1
:1039C000CB0189AB9AABABABBCAB69A97AA98BA98C
:1039D0009CA920E030E040E85FE30E9425048823B2
:1039E0002CF481E090E098AB8FA73FC069A97AA939
:1039F0008BA99CA920E03FEF4FE757E40E94C50345
:103A000018164CF56DA97EA98FA998AD20E030E07D
:103A100040E251E40E941F02DC01CB01BC01CD0158
:103A20000E944900DC01CB0198AB8FA70FC088EC46
:103A300090E09EA78DA78DA59EA50197F1F79EA763
:103A40008DA78FA598A9019798AB8FA78FA598A947
:103A5000009769F714C069A97AA98BA99CA90E944B
:103A60004900DC01CB0198AB8FA78FA598A99CA733
:103A70008BA78BA59CA50197F1F79CA78BA789AD78
:103A800088600E94B40680E090E0A0E8BFE38FA3C6
:103A900098A7A9A7BAA76FA178A589A59AA520E09C
:103AA00030E04AEF54E40E941F02DC01CB018BA3FB
:103AB0009CA3ADA3BEA36BA17CA18DA19EA120E080
:103AC00030E040E85FE30E94250488232CF481E085
:103AD00090E09AA389A33FC06BA17CA18DA19EA178
:103AE00020E03FEF4FE757E40E94C50318164CF55E
:103AF0006FA178A589A59AA520E030E040E251E4C5
:103B00000E941F02DC01CB01BC01CD010E944900D3
:103B1000DC01CB019AA389A30FC088EC90E098A3A5
:103B20008F8F8F8D98A10197F1F798A38F8F89A11F
:103B30009AA101979AA389A389A19AA1009769F7ED
:103B400014C06BA17CA18DA19EA10E944900DC0143
:103B5000CB019AA389A389A19AA19E8F8D8F8D8D68
:103B60009E8D0197F1F79E8F8D8F8AAD807F89AFF3
:103B700089AD8C600E94B40680E090E0A0E8BFE3CD
:103B8000898F9A8FAB8FBC8F698D7A8D8B8D9C8D31
:103B900020E030E04AEF54E40E941F02DC01CB0138
:103BA0008D8B9E8BAF8BB88F6D897E898F89988D19
:103BB00020E030E040E85FE30E94250488232CF4F5
:103BC00081E090E09C8B8B8B3FC06D897E898F89D3
:103BD000988D20E03FEF4FE757E40E94C503181689
:103BE0004CF5698D7A8D8B8D9C8D20E030E040E224
:103BF00051E40E941F02DC01CB01BC01CD010E94F7
:103C00004900DC01CB019C8B8B8B0FC088EC90E0D2
:103C10009A8B898B89899A890197F1F79A8B898B7D
:103C20008B899C8901979C8B8B8B8B899C890097B6
:103C300069F714C06D897E898F89988D0E9449002B
:103C4000DC01CB019C8B8B8B8B899C89988B8F871C
:103C50008F8598890197F1F7988B8F8789AD886058
:103C60000E94B40680E090E0A0E8BFE38B879C87C9
:103C7000AD87BE876B857C858D859E8520E030E095
:103C80004AEF54E40E941F02DC01CB018F83988726
:103C9000A987BA876F81788589859A8520E030E089
:103CA00040E85FE30E94250488232CF481E090E043
:103CB0009E838D833FC06F81788589859A8520E0BA
:103CC0003FEF4FE757E40E94C50318164CF56B858C
:103CD0007C858D859E8520E030E040E251E40E94A5
:103CE0001F02DC01CB01BC01CD010E944900DC01B7
:103CF000CB019E838D830FC088EC90E09C838B83E7
:103D00008B819C810197F1F79C838B838D819E81B0
:103D100001979E838D838D819E81009769F714C0E2
:103D20006F81788589859A850E944900DC01CB01E5
:103D30009E838D838D819E819A83898389819A81D7
:103D40000197F1F79A8389830E941507EA960FB6C7
:103D5000F894DEBF0FBECDBFCF91DF910895DF9302
:103D6000CF9300D00F92CDB7DEB78B838B81807F4E
:103D70008A838B81882F90E082959295907F9827F7
:103D8000807F982789838A8181600E948726898124
:103D900081600E9487260F900F900F90CF91DF9146
:103DA00008950F931F93DF93CF93CDB7DEB7C3581A
:103DB000D0400FB6F894DEBF0FBECDBF0E944F06B5
:103DC000FE01ED57FF4F88E0808382E060E041E034
:103DD0000E94A21282E061E041E00E94A212FE0174
:103DE000E358FF4F80E090E0A8E4B2E48083918341
:103DF000A283B3838E0107581F4FFE01E358FF4F84
:103E0000608171818281938120E030E04AEF54E447
:103E10000E941F02DC01CB01F80180839183A28301
:103E2000B383FE01E758FF4F6081718182819381E6
:103E300020E030E040E85FE30E942504882344F45A
:103E4000FE01E958FF4F81E090E09183808364C0D8
:103E5000FE01E758FF4F608171818281938120E0EC
:103E60003FEF4FE757E40E94C50318160CF043C01C
:103E7000FE01E358FF4F608171818281938120E0D0
:103E800030E040E251E40E941F02DC01CB018E01D0
:103E900009581F4FBC01CD010E944900DC01CB0134
:103EA000F801918380831FC0FE01EB58FF4F88EC1F
:103EB00090E091838083FE01EB58FF4F80819181D8
:103EC0000197F1F7FE01EB58FF4F91838083DE01EC
:103ED000A958BF4FFE01E958FF4F8081918101979A
:103EE00011969C938E93FE01E958FF4F808191813A
:103EF0000097D1F627C08E0109581F4FFE01E758E1
:103F0000FF4F60817181828193810E944900DC01B1
:103F1000CB01F80191838083DE01AD58BF4FFE01D4
:103F2000E958FF4F808191818D939C93FE01ED585C
:103F3000FF4F808191810197F1F7FE01ED58FF4F0E
:103F40009183808388E00E947126FE01E159FF4F32
:103F500080E090E0AAE7B4E480839183A283B383F6
:103F60008E0105591F4FFE01E159FF4F608171819C
:103F70008281938120E030E04AEF54E40E941F02E6
:103F8000DC01CB01F80180839183A283B383FE011E
:103F9000E559FF4F608171818281938120E030E09B
:103FA00040E85FE30E942504882344F4FE01E759BA
:103FB000FF4F81E090E09183808364C0FE01E5596A
:103FC000FF4F608171818281938120E03FEF4FE755
:103FD00057E40E94C50318160CF043C0FE01E159D6
:103FE000FF4F608171818281938120E030E040E267
:103FF00051E40E941F02DC01CB018E0107591F4FC3
:10400000BC01CD010E944900DC01CB01F801918384
:1040100080831FC0FE01E959FF4F88EC90E0918337
:104020008083FE01E959FF4F808191810197F1F76B
:10403000FE01E959FF4F91838083DE01A759BF4FED
:10404000FE01E759FF4F80819181019711969C9362
:104050008E93FE01E759FF4F808191810097D1F641
:1040600027C08E0107591F4FFE01E559FF4F6081A0
:104070007181828193810E944900DC01CB01F801AA
:1040800091838083DE01AB59BF4FFE01E759FF4F9B
:10409000808191818D939C93FE01EB59FF4F80812C
:1040A00091810197F1F7FE01EB59FF4F91838083D6
:1040B00080E30E948726FE01EF59FF4F80E090EADF
:1040C000ACE8B5E480839183A283B3838E01035A65
:1040D0001F4FFE01EF59FF4F6081718182819381F3
:1040E0002BEA3AEA4AE250E40E941F02DC01CB01CB
:1040F000F80180839183A283B383FE01E35AFF4FCB
:10410000608171818281938120E030E040E85FE34B
:104110000E942504882334F4FE01E45AFF4F81E015
:104120008083E0C0FE01E35AFF4F6081718182818C
:10413000938120E030E04FE753E40E94C503181656
:104140000CF0C0C0FE01EF59FF4F60817181828188
:10415000938120E030E04AE754E40E941903DC0137
:10416000CB01FE01E85AFF4F80839183A283B38382
:104170008E010C5A1F4FFE01E85AFF4F608171817A
:104180008281938120E030E04AEF54E40E941F02D4
:10419000DC01CB01F80180839183A283B383FE010C
:1041A000EC5AFF4F608171818281938120E030E081
:1041B00040E85FE30E942504882344F4FE01EE5AA0
:1041C000FF4F81E090E09183808364C0FE01EC5A50
:1041D000FF4F608171818281938120E03FEF4FE743
:1041E00057E40E94C50318160CF043C0FE01E85ABC
:1041F000FF4F608171818281938120E030E040E255
:1042000051E40E941F02DC01CB018E010E5A1F4FA8
:10421000BC01CD010E944900DC01CB01F801918372
:1042200080831FC0FE01E05BFF4F88EC90E091832C
:104230008083FE01E05BFF4F808191810197F1F760
:10424000FE01E05BFF4F91838083DE01AE5ABF4FDA
:10425000FE01EE5AFF4F80819181019711969C9348
:104260008E93FE01EE5AFF4F808191810097D1F627
:104270004BC08E010E5A1F4FFE01EC5AFF4F60815A
:104280007181828193810E944900DC01CB01F80198
:1042900091838083DE01A25BBF4FFE01EE5AFF4F88
:1042A0008081918111969C938E93FE01E25BFF4F7A
:1042B000808191810197F1F7FE01E25BFF4F9183CD
:1042C000808322C08E01045A1F4FFE01E35AFF4F24
:1042D00060817181828193810E944900DC01CB0160
:1042E000F8018083DE01A35BBF4FFE01E45AFF4F5C
:1042F00080818C93FE01E35BFF4F80818A95F1F70B
:10430000FE01E35BFF4F808380E30E948726FE016E
:10431000E75BFF4F80E090EAACE8B5E480839183EF
:10432000A283B3838E010B5B1F4FFE01E75BFF4F40
:1043300060817181828193812BEA3AEA4AE250E4FA
:104340000E941F02DC01CB01F80180839183A283CC
:10435000B383FE01EB5BFF4F6081718182819381AA
:1043600020E030E040E85FE30E942504882334F435
:10437000FE01EC5BFF4F81E08083A7C0FE01EB5B99
:10438000FF4F608171818281938120E030E04FE7AF
:1043900053E40E94C50318160CF087C0FE01E75BCA
:1043A000FF4F608171818281938120E030E04AE794
:1043B00054E40E941903DC01CB01FE01E05CFF4FD5
:1043C00080839183A283B383FE01E05CFF4F608111
:1043D00071818281938120E030E04AEF54E40E94B1
:1043E0001F02DC01CB018CAF9DAFAEAFBFAF6CAD98
:1043F0007DAD8EAD9FAD20E030E040E85FE30E94F0
:10440000250488232CF481E090E09BAF8AAF42C062
:104410006CAD7DAD8EAD9FAD20E03FEF4FE757E433
:104420000E94C503181664F5FE01E05CFF4F608131
:1044300071818281938120E030E040E251E40E946A
:104440001F02DC01CB01BC01CD010E944900DC014F
:10445000CB019BAF8AAF0FC088EC90E099AF88AFDB
:1044600088AD99AD0197F1F799AF88AF8AAD9BAD53
:1044700001979BAF8AAF8AAD9BAD009769F72EC0BD
:104480006CAD7DAD8EAD9FAD0E944900DC01CB01CE
:104490009BAF8AAF8AAD9BAD9FAB8EAB8EA99FA918
:1044A0000197F1F79FAB8EAB19C08E010C5B1F4FCC
:1044B000FE01EB5BFF4F60817181828193810E94DD
:1044C0004900DC01CB01F8018083FE01EC5BFF4F6A
:1044D00080818DAB8DA98A95F1F78DAB80E30E9429
:1044E000872680E090E0A6E1B3E489AB9AABABAB62
:1044F000BCAB69A97AA98BA99CA92BEA3AEA4AE242
:1045000050E40E941F02DC01CB018DA79EA7AFA73C
:10451000B8AB6DA57EA58FA598A920E030E040E856
:104520005FE30E94250488231CF481E08CA791C0DE
:104530006DA57EA58FA598A920E030E04FE753E454
:104540000E94C50318160CF07BC069A97AA98BA933
:104550009CA920E030E04AE754E40E941903DC0102
:10456000CB0188A799A7AAA7BBA768A579A58AA503
:104570009BA520E030E04AEF54E40E941F02DC01DA
:10458000CB018CA39DA3AEA3BFA36CA17DA18EA1E3
:104590009FA120E030E040E85FE30E9425048823EB
:1045A0002CF481E090E09BA38AA33FC06CA17DA185
:1045B0008EA19FA120E03FEF4FE757E40E94C50383
:1045C00018164CF568A579A58AA59BA520E030E0D2
:1045D00040E251E40E941F02DC01CB01BC01CD018D
:1045E0000E944900DC01CB019BA38AA30FC088EC89
:1045F00090E099A388A388A199A10197F1F799A3C5
:1046000088A38AA19BA101979BA38AA38AA19BA1AE
:10461000009769F724C06CA17DA18EA19FA10E9483
:104620004900DC01CB019BA38AA38AA19BA19F8F98
:104630008E8F8E8D9F8D0197F1F79F8F8E8F0FC07C
:104640006DA57EA58FA598A90E944900DC01CB012C
:104650008CA78CA58D8F8D8D8A95F1F78D8F80E23B
:104660000E948726FE01ED57FF4F808180620E94E5
:10467000BD26FE01EE57FF4F84E08083FE01EE571A
:10468000FF4F808188600E94BD2681E00E94BD2688
:1046900080E090E0A0E0B0E4898F9A8FAB8FBC8F70
:1046A000698D7A8D8B8D9C8D20E030E04AEF54E44B
:1046B0000E941F02DC01CB018D8B9E8BAF8BB88FCC
:1046C0006D897E898F89988D20E030E040E85FE336
:1046D0000E94250488232CF481E090E09C8B8B8B36
:1046E0003FC06D897E898F89988D20E03FEF4FE72D
:1046F00057E40E94C50318164CF5698D7A8D8B8D91
:104700009C8D20E030E040E251E40E941F02DC0179
:10471000CB01BC01CD010E944900DC01CB019C8B87
:104720008B8B0FC088EC90E09A8B898B89899A8952
:104730000197F1F79A8B898B8B899C8901979C8BC8
:104740008B8B8B899C89009769F714C06D897E8952
:104750008F89988D0E944900DC01CB019C8B8B8B4B
:104760008B899C89988B8F878F8598890197F1F722
:10477000988B8F87FE01EF57FF4F82E08083FE0109
:10478000EF57FF4F808184600E94BD2682E00E9427
:10479000BD2680E090E0A0E0B0E48B879C87AD87E9
:1047A000BE876B857C858D859E8520E030E04AEF55
:1047B00054E40E941F02DC01CB018F839887A987F4
:1047C000BA876F81788589859A8520E030E040E856
:1047D0005FE30E94250488232CF481E090E09E830F
:1047E0008D833FC06F81788589859A8520E03FEF72
:1047F0004FE757E40E94C50318164CF56B857C857E
:104800008D859E8520E030E040E251E40E941F0249
:10481000DC01CB01BC01CD010E944900DC01CB01D0
:104820009E838D830FC088EC90E09C838B838B816B
:104830009C810197F1F79C838B838D819E810197E9
:104840009E838D838D819E81009769F714C06F814F
:10485000788589859A850E944900DC01CB019E8379
:104860008D838D819E819A83898389819A81019725
:10487000F1F79A838983CD57DF4F0FB6F894DEBFE7
:104880000FBECDBFCF91DF911F910F910895DF93A0
:10489000CF9300D00F92CDB7DEB79B838A83198266
:1048A0000EC08981282F30E08A819B81FC01E20FB4
:1048B000F31F80810E94AF1E89818F5F8983898168
:1048C000282F30E08A819B81FC01E20FF31F808159
:1048D000882339F70F900F900F90CF91DF910895B3
:1048E000EF92FF920F931F93DF93CF93CDB7DEB775
:1048F0002D970FB6F894DEBF0FBECDBF6A877B87BA
:104900008C879D87198681E090E0A0E0B0E08D83E0
:104910009E83AF83B8878A859B85AC85BD85898357
:104920009A83AB83BC8315C089858F5F8987898112
:104930009A81AB81BC812AE030E040E050E0BC01CC
:10494000CD010E943631DA01C90189839A83AB8394
:10495000BC8389819A81AB81BC810996A11DB11D5F
:1049600083319105A105B105F8F615C08D819E81B1
:10497000AF81B8852AE030E040E050E0BC01CD01D5
:104980000E94CE30DC01CB018D839E83AF83B8873C
:104990008985815089878985882341F78A859B8508
:1049A000AC85BD85873F2FEF92072FEFA2072FEF32
:1049B000B2070CF48AC08A859B85AC85BD852AE048
:1049C00030E040E050E0BC01CD010E943631DC0116
:1049D000CB01BB230CF479C05CC02A853B854C8598
:1049E0005D858D819E81AF81B885281739074A077B
:1049F0005B0790F08A859B85AC85BD852D813E81C6
:104A00004F815885BC01CD010E941431DA01C901E2
:104A1000805D0E94AF1E03C080E30E94AF1EEA8447
:104A2000FB840C851D858A859B85AC85BD852D8184
:104A30003E814F815885BC01CD010E941431DA01BD
:104A4000C9012D813E814F815885BC01CD010E9455
:104A5000CE30DC01CB01A8019701281B390B4A0B92
:104A60005B0BDA01C9018A879B87AC87BD878D8183
:104A70009E81AF81B8852AE030E040E050E0BC0183
:104A8000CD010E941431DA01C9018D839E83AF8369
:104A9000B8878D819E81AF81B88582309105A1054F
:104AA000B10508F09ACF8A859B85AC85BD852AE043
:104AB00030E040E050E0BC01CD010E943631DC0125
:104AC000CB01805D0E94AF1E89C08DE20E94AF1EA7
:104AD0008A859B85AC85BD85B095A095909581957F
:104AE0009F4FAF4FBF4F8A879B87AC87BD875CC006
:104AF0002A853B854C855D858D819E81AF81B885FA
:104B0000281739074A075B0790F08A859B85AC8593
:104B1000BD852D813E814F815885BC01CD010E940C
:104B20001431DA01C901805D0E94AF1E03C080E329
:104B30000E94AF1EEA84FB840C851D858A859B85B7
:104B4000AC85BD852D813E814F815885BC01CD014D
:104B50000E941431DA01C9012D813E814F815885AF
:104B6000BC01CD010E94CE30DC01CB01A801970130
:104B7000281B390B4A0B5B0BDA01C9018A879B871B
:104B8000AC87BD878D819E81AF81B8852AE030E0FA
:104B900040E050E0BC01CD010E941431DA01C901AE
:104BA0008D839E83AF83B8878D819E81AF81B885C9
:104BB0000097A105B10509F09BCF8A859B85AC853F
:104BC000BD852AE030E040E050E0BC01CD010E940C
:104BD0003631DC01CB01805D0E94AF1E2D960FB6F1
:104BE000F894DEBF0FBECDBFCF91DF911F910F9123
:104BF000FF90EF900895DF93CF9300D000D0CDB712
:104C0000DEB789836A838981282F30E03C832B8338
:104C10008B819C8181309105D1F02B813C812230A8
:104C200031052CF48B819C81009761F021C02B8190
:104C30003C812230310589F08B819C818330910544
:104C400091F016C08A8180680E94AD1B11C08A81D4
:104C5000805C80680E94AD1B0BC08A818C5E80687E
:104C60000E94AD1B05C08A818C5A80680E94AD1BD2
:104C70000F900F900F900F90CF91DF910895DF93D9
:104C8000CF9300D000D0CDB7DEB78A837C836B830F
:104C90008A81882F90E00896880F991F880F991FA6
:104CA000880F991F0E94AD1B19820EC08981282F81
:104CB00030E08B819C81FC01E20FF31F80810E9418
:104CC000AF1E89818F5F89838981883078F380E87E
:104CD0000E94AD1B0F900F900F900F90CF91DF911E
:104CE0000895DF93CF930F92CDB7DEB789830E94EB
:104CF000610687E260E00E948906898188600E94DF
:104D0000B4060E9415070F90CF91DF910895DF93AD
:104D1000CF930F92CDB7DEB7898389810E94712628
:104D200089810E94CB260F90CF91DF910895DF9368
:104D3000CF9300D000D0CDB7DEB78B836C838B814F
:104D4000807F8A838B81882F90E082959295907FD7
:104D50009827807F982789839A818C81892B0E944C
:104D6000872699818C81892B0E9487260F900F902E
:104D70000F900F90CF91DF910895DF93CF930F9213
:104D8000CDB7DEB78983898160E00E9497260F90B6
:104D9000CF91DF910895DF93CF93CDB7DEB7E19741
:104DA0000FB6F894DEBF0FBECDBF89AB89A9846072
:104DB0000E94712680E090E0A0E8BFE38DA79EA747
:104DC000AFA7B8AB6DA57EA58FA598A92BEA3AEA47
:104DD0004AE250E40E941F02DC01CB0189A79AA796
:104DE000ABA7BCA769A57AA58BA59CA520E030E060
:104DF00040E85FE30E94250488231CF481E088A733
:104E000091C069A57AA58BA59CA520E030E04FE76D
:104E100053E40E94C50318160CF07BC06DA57EA557
:104E20008FA598A920E030E04AE754E40E941903D6
:104E3000DC01CB018CA39DA3AEA3BFA36CA17DA17C
:104E40008EA19FA120E030E04AEF54E40E941F02AF
:104E5000DC01CB0188A399A3AAA3BBA368A179A174
:104E60008AA19BA120E030E040E85FE30E94250496
:104E700088232CF481E090E09F8F8E8F3FC068A143
:104E800079A18AA19BA120E03FEF4FE757E40E9460
:104E9000C50318164CF56CA17DA18EA19FA120E041
:104EA00030E040E251E40E941F02DC01CB01BC0172
:104EB000CD010E944900DC01CB019F8F8E8F0FC076
:104EC00088EC90E09D8F8C8F8C8D9D8D0197F1F7F4
:104ED0009D8F8C8F8E8D9F8D01979F8F8E8F8E8D46
:104EE0009F8D009769F724C068A179A18AA19BA131
:104EF0000E944900DC01CB019F8F8E8F8E8D9F8D8C
:104F00009B8F8A8F8A8D9B8D0197F1F79B8F8A8F5C
:104F10000FC069A57AA58BA59CA50E944900DC015C
:104F2000CB0188A788A5898F898D8A95F1F7898F0C
:104F300089A98B7F0E94712680E090E0A8E4B2E40A
:104F40008D8B9E8BAF8BB88F6D897E898F89988D65
:104F50002BEA3AEA4AE250E40E941F02DC01CB014C
:104F6000898B9A8BAB8BBC8B69897A898B899C895D
:104F700020E030E040E85FE30E94250488231CF431
:104F800081E0888B91C069897A898B899C8920E02E
:104F900030E04FE753E40E94C50318160CF07BC0C5
:104FA0006D897E898F89988D20E030E04AE754E44E
:104FB0000E941903DC01CB018C879D87AE87BF87D8
:104FC0006C857D858E859F8520E030E04AEF54E436
:104FD0000E941F02DC01CB0188879987AA87BB87C3
:104FE000688579858A859B8520E030E040E85FE32D
:104FF0000E94250488232CF481E090E09F838E8317
:105000003FC0688579858A859B8520E03FEF4FE723
:1050100057E40E94C50318164CF56C857D858E8576
:105020009F8520E030E040E251E40E941F02DC0155
:10503000CB01BC01CD010E944900DC01CB019F8363
:105040008E830FC088EC90E09D838C838C819D8142
:105050000197F1F79D838C838E819F8101979F83B8
:105060008E838E819F81009769F724C0688579853A
:105070008A859B850E944900DC01CB019F838E833A
:105080008E819F819B838A838A819B810197F1F71F
:105090009B838A830FC069897A898B899C890E9446
:1050A0004900DC01CB01888B8889898389818A95B5
:1050B000F1F78983E1960FB6F894DEBF0FBECDBF3E
:1050C000CF91DF910895DF93CF93CDB7DEB781E025
:1050D0006FE00E941C1581E06FEF0E945D15CF917B
:1050E000DF910895DF93CF93CDB7DEB7A2970FB6C8
:1050F000F894DEBF0FBECDBF1AA219A218A265C1D7
:1051000081E068A140E00E94A2131F8E52C18F8DE2
:10511000982F9C5F81E0692F0E94A214882309F0D8
:10512000C9C088A1882F90E0880F991F880F991F08
:10513000982F8F8D890F8F5F8AA3BCC081E068A1F3
:1051400041E00E94A2131E8EACC081E06E8D40E053
:105150000E94A2131D8E99C08D8D982F9C5F81E0B7
:10516000692F0E94A214882351F49E8D88A198175C
:1051700031F09F8D8D8D981711F081E089A38D8D71
:10518000982F9C5F81E0692F0E94A214882341F42C
:105190009E8D88A1981721F09F8D8D8D981779F796
:1051A00080E090E0A0E2B1E4898F9A8FAB8FBC8F52
:1051B000698D7A8D8B8D9C8D20E030E04AEF54E430
:1051C0000E941F02DC01CB018D8B9E8BAF8BB88FB1
:1051D0006D897E898F89988D20E030E040E85FE31B
:1051E0000E94250488232CF481E090E09C8B8B8B1B
:1051F0003FC06D897E898F89988D20E03FEF4FE712
:1052000057E40E94C50318164CF5698D7A8D8B8D75
:105210009C8D20E030E040E251E40E941F02DC015E
:10522000CB01BC01CD010E944900DC01CB019C8B6C
:105230008B8B0FC088EC90E09A8B898B89899A8937
:105240000197F1F79A8B898B8B899C8901979C8BAD
:105250008B8B8B899C89009769F714C06D897E8937
:105260008F89988D0E944900DC01CB019C8B8B8B30
:105270008B899C89988B8F878F8598890197F1F707
:10528000988B8F878D8D8F5F8D8F8D8D843008F4F7
:1052900063CF81E06E8D41E00E94A2138E8D8F5FFF
:1052A0008E8F8E8D843008F450CF81E068A140E06D
:1052B0000E94A2138F8D982F9C5F81E0692F0E941E
:1052C000A214882309F43ACF80E090E0A0E2B1E490
:1052D0008B879C87AD87BE876B857C858D859E85FA
:1052E00020E030E04AEF54E40E941F02DC01CB01D1
:1052F0008F839887A987BA876F81788589859A85F2
:1053000020E030E040E85FE30E94250488232CF48D
:1053100081E090E09E838D833FC06F817885898591
:105320009A8520E03FEF4FE757E40E94C503181627
:105330004CF56B857C858D859E8520E030E040E2D4
:1053400051E40E941F02DC01CB01BC01CD010E948F
:105350004900DC01CB019E838D830FC088EC90E077
:105360009C838B838B819C810197F1F79C838B833A
:105370008D819E8101979E838D838D819E81009773
:1053800069F714C06F81788589859A850E944900E4
:10539000DC01CB019E838D838D819E819A838983DD
:1053A00089819A810197F1F79A8389838F8D8F5F25
:1053B0008F8F8F8D843008F4AACE81E068A141E000
:1053C0000E94A21388A18F5F88A388A1843008F46B
:1053D00097CE89A1882311F086E18AA38AA1882F1C
:1053E00090E00197FC01E755FF4F8081A2960FB630
:1053F000F894DEBF0FBECDBFCF91DF910895DF934C
:10540000CF9300D000D00F92CDB7DEB79B838A83B5
:10541000EA81FB818081EA81FB819181692F0E9471
:10542000A21489838981282F30E03D832C838C81CD
:105430009D81009731F02C813D812130310521F093
:1054400004C081E0898301C0198289810F900F9087
:105450000F900F900F90CF91DF910895DF93CF932E
:1054600000D000D0CDB7DEB78B836C838B8189836E
:105470008C818A8389819A81692F40E00E94A212DF
:1054800089819A81692F40E00E94A21389819A81C3
:105490000F900F900F900F90CF91DF910895DF93B1
:1054A000CF93CDB7DEB70E944C0983E066E040E0C1
:1054B0000E94A212809154019091550162E041E056
:1054C0000E94A212809154019091550163E041E045
:1054D0000E94A212809154019091550164E041E034
:1054E0000E94A212809154019091550165E041E023
:1054F0000E94A212809154019091550162E041E016
:105500000E94A213809154019091550163E040E004
:105510000E94A2130E94ED11CF91DF910895DF93B5
:10552000CF93CDB7DEB7809154019091550164E0DF
:1055300040E00E94A213809154019091550165E0D2
:1055400040E00E94A2132EEE30E083EF90E0B9011C
:105550000E94350E809154019091550164E041E024
:105560000E94A213809154019091550165E041E0A1
:105570000E94A2132EEE30E081EF90E0B9010E946C
:10558000350E809154019091550164E040E00E94F5
:10559000A213809154019091550165E041E00E9471
:1055A000A2132EEE30E08FEE90E0B9010E94350E8E
:1055B0002091F3003091F4008091F1009091F2007D
:1055C0002817390770F42091F3003091F40080918E
:1055D000EF009091F0002817390718F41092ED00B1
:1055E00036C02091F1003091F2008091F30090914B
:1055F000F4002817390778F42091F1003091F20077
:105600008091EF009091F0002817390720F481E095
:105610008093ED001CC02091EF003091F00080914C
:10562000F3009091F4002817390778F42091EF00E7
:105630003091F0008091F1009091F2002817390725
:1056400020F482E08093ED0002C00E948F2A8091B6
:10565000ED00CF91DF910895DF93CF93CDB7DEB703
:1056600082E060E041E00E94A21282E060E040E05F
:105670000E94A213CF91DF910895DF93CF93CDB70E
:10568000DEB72E970FB6F894DEBF0FBECDBF82E017
:1056900060E041E00E94A21380E090E0AAE7B4E459
:1056A0008B879C87AD87BE876B857C858D859E8526
:1056B00020E030E04AEF54E40E941F02DC01CB01FD
:1056C0008F839887A987BA876F81788589859A851E
:1056D00020E030E040E85FE30E94250488232CF4BA
:1056E00081E090E09E838D833FC06F8178858985BE
:1056F0009A8520E03FEF4FE757E40E94C503181654
:105700004CF56B857C858D859E8520E030E040E200
:1057100051E40E941F02DC01CB01BC01CD010E94BB
:105720004900DC01CB019E838D830FC088EC90E0A3
:105730009C838B838B819C810197F1F79C838B8366
:105740008D819E8101979E838D838D819E8100979F
:1057500069F714C06F81788589859A850E94490010
:10576000DC01CB019E838D838D819E819A83898309
:1057700089819A810197F1F79A83898382E060E0B9
:1057800040E00E94A2132E960FB6F894DEBF0FBE23
:10579000CDBFCF91DF910895DF93CF93CDB7DEB723
:1057A0006C970FB6F894DEBF0FBECDBF82E060E00D
:1057B00041E00E94A21380E090E0AFE2B4E4898F60
:1057C0009A8FAB8FBC8F698D7A8D8B8D9C8D20E0ED
:1057D00030E04AEF54E40E941F02DC01CB018D8BC4
:1057E0009E8BAF8BB88F6D897E898F89988D20E0D5
:1057F00030E040E85FE30E94250488232CF481E038
:1058000090E09C8B8B8B3FC06D897E898F89988DB2
:1058100020E03FEF4FE757E40E94C50318164CF510
:10582000698D7A8D8B8D9C8D20E030E040E251E4D3
:105830000E941F02DC01CB01BC01CD010E94490086
:10584000DC01CB019C8B8B8B0FC088EC90E09A8B9A
:10585000898B89899A890197F1F79A8B898B8B8932
:105860009C8901979C8B8B8B8B899C89009769F70E
:1058700014C06D897E898F89988D0E944900DC0152
:10588000CB019C8B8B8B8B899C89988B8F878F8589
:1058900098890197F1F7988B8F8782E060E040E06C
:1058A0000E94A21380E090E0AFE2B4E48B879C8773
:1058B000AD87BE876B857C858D859E8520E030E039
:1058C0004AEF54E40E941F02DC01CB018F839887CA
:1058D000A987BA876F81788589859A8520E030E02D
:1058E00040E85FE30E94250488232CF481E090E0E7
:1058F0009E838D833FC06F81788589859A8520E05E
:105900003FEF4FE757E40E94C50318164CF56B852F
:105910007C858D859E8520E030E040E251E40E9448
:105920001F02DC01CB01BC01CD010E944900DC015A
:10593000CB019E838D830FC088EC90E09C838B838A
:105940008B819C810197F1F79C838B838D819E8154
:1059500001979E838D838D819E81009769F714C086
:105960006F81788589859A850E944900DC01CB0189
:105970009E838D838D819E819A83898389819A817B
:105980000197F1F79A8389836C960FB6F894DEBF7E
:105990000FBECDBFCF91DF9108950F931F93DF937B
:1059A000CF9300D0CDB7DEB70E944F2A0E942C2B98
:1059B0000E9463280E94D11E0E94D5180E940518DB
:1059C0000E94E0150E9407170E9474181A8219821B
:1059D0000E94652D0E944C090E94ED1121EE3FE2CC
:1059E00082E064E170E0A9010E948C0A2EE237E1B6
:1059F00082E061E070E0A9010E948C0A89EB90E0EE
:105A00000E94FF298823D1F385E00E94411680E09F
:105A10000E94550A8981082F10E00E94EB18F801B6
:105A2000EA5AFE4F808380E00E941B0A8981882FFA
:105A300090E0FC01EA5AFE4F8081282F30E08091EF
:105A4000F700882F90E0C297281739078CF48981D6
:105A5000882F90E0FC01EA5AFE4F8081282F30E029
:105A60008091F700882F90E0C296821793078CF000
:105A70008981882F90E0FC01E750FF4F81E080830F
:105A80002EEE3FE280E068EE73E0A9010E948C0AEE
:105A90000BC02EEE3FE280E060ED77E0A9010E94AE
:105AA0008C0A89818F5F898385E00E94A41684E037
:105AB0000E9441168AE50E9419180E946217898186
:105AC000853009F09BCF198299CFDF93CF93CDB763
:105AD000DEB76E970FB6F894DEBF0FBECDBF80E085
