:100000000C942A000C9434000C9434000C943400AA
:100010000C9434000C9434000C9434000C94340090
:100020000C9434000C9434000C9434000C94340080
:100030000C9434000C9434000C9434000C94340070
:100040000C9434000C9434000C9434000C94340060
:100050000C94340011241FBECFE5D8E0DEBFCDBF25
:100060000E9436000C944C000C9400008FE08ABB78
:1000700031E048EC50E03BBB20E00BC0FA01319787
:10008000F1F70197D9F78BB3880F8BBB2F5F243023
:0C00900091F380E197E2F2CFF894FFCFEB
:00000001FF
